{
  "_format": "hh-sol-artifact-1",
  "contractName": "ArminaPool",
  "sourceName": "contracts/ArminaPool.sol",
  "abi": [
    {
      "inputs": [
        {
          "internalType": "address",
          "name": "_idrxToken",
          "type": "address"
        },
        {
          "internalType": "address",
          "name": "_vrfCoordinator",
          "type": "address"
        },
        {
          "internalType": "uint64",
          "name": "_subscriptionId",
          "type": "uint64"
        },
        {
          "internalType": "bytes32",
          "name": "_keyHash",
          "type": "bytes32"
        }
      ],
      "stateMutability": "nonpayable",
      "type": "constructor"
    },
    {
      "inputs": [],
      "name": "AlreadyJoined",
      "type": "error"
    },
    {
      "inputs": [],
      "name": "InsufficientPayment",
      "type": "error"
    },
    {
      "inputs": [],
      "name": "InvalidMonthlyAmount",
      "type": "error"
    },
    {
      "inputs": [],
      "name": "InvalidPoolSize",
      "type": "error"
    },
    {
      "inputs": [],
      "name": "NotParticipant",
      "type": "error"
    },
    {
      "inputs": [
        {
          "internalType": "address",
          "name": "have",
          "type": "address"
        },
        {
          "internalType": "address",
          "name": "want",
          "type": "address"
        }
      ],
      "name": "OnlyCoordinatorCanFulfill",
      "type": "error"
    },
    {
      "inputs": [
        {
          "internalType": "address",
          "name": "owner",
          "type": "address"
        }
      ],
      "name": "OwnableInvalidOwner",
      "type": "error"
    },
    {
      "inputs": [
        {
          "internalType": "address",
          "name": "account",
          "type": "address"
        }
      ],
      "name": "OwnableUnauthorizedAccount",
      "type": "error"
    },
    {
      "inputs": [],
      "name": "PaymentAlreadyProcessed",
      "type": "error"
    },
    {
      "inputs": [],
      "name": "PoolNotActive",
      "type": "error"
    },
    {
      "inputs": [],
      "name": "PoolNotCompleted",
      "type": "error"
    },
    {
      "inputs": [],
      "name": "PoolNotOpen",
      "type": "error"
    },
    {
      "inputs": [],
      "name": "ReentrancyGuardReentrantCall",
      "type": "error"
    },
    {
      "anonymous": false,
      "inputs": [
        {
          "indexed": true,
          "internalType": "uint256",
          "name": "poolId",
          "type": "uint256"
        },
        {
          "indexed": true,
          "internalType": "address",
          "name": "participant",
          "type": "address"
        },
        {
          "indexed": false,
          "internalType": "uint256",
          "name": "finalPayout",
          "type": "uint256"
        }
      ],
      "name": "FinalSettlement",
      "type": "event"
    },
    {
      "anonymous": false,
      "inputs": [
        {
          "indexed": true,
          "internalType": "address",
          "name": "previousOwner",
          "type": "address"
        },
        {
          "indexed": true,
          "internalType": "address",
          "name": "newOwner",
          "type": "address"
        }
      ],
      "name": "OwnershipTransferred",
      "type": "event"
    },
    {
      "anonymous": false,
      "inputs": [
        {
          "indexed": true,
          "internalType": "uint256",
          "name": "poolId",
          "type": "uint256"
        },
        {
          "indexed": true,
          "internalType": "address",
          "name": "participant",
          "type": "address"
        },
        {
          "indexed": false,
          "internalType": "uint256",
          "name": "collateralPaid",
          "type": "uint256"
        },
        {
          "indexed": false,
          "internalType": "uint256",
          "name": "firstPayment",
          "type": "uint256"
        }
      ],
      "name": "ParticipantJoined",
      "type": "event"
    },
    {
      "anonymous": false,
      "inputs": [
        {
          "indexed": true,
          "internalType": "uint256",
          "name": "poolId",
          "type": "uint256"
        },
        {
          "indexed": true,
          "internalType": "address",
          "name": "participant",
          "type": "address"
        },
        {
          "indexed": false,
          "internalType": "uint8",
          "name": "month",
          "type": "uint8"
        },
        {
          "indexed": false,
          "internalType": "uint256",
          "name": "amount",
          "type": "uint256"
        },
        {
          "indexed": false,
          "internalType": "enum ArminaPool.PaymentSource",
          "name": "source",
          "type": "uint8"
        },
        {
          "indexed": false,
          "internalType": "uint256",
          "name": "penalty",
          "type": "uint256"
        }
      ],
      "name": "PaymentProcessed",
      "type": "event"
    },
    {
      "anonymous": false,
      "inputs": [
        {
          "indexed": true,
          "internalType": "uint256",
          "name": "poolId",
          "type": "uint256"
        },
        {
          "indexed": true,
          "internalType": "address",
          "name": "creator",
          "type": "address"
        },
        {
          "indexed": false,
          "internalType": "uint256",
          "name": "monthlyAmount",
          "type": "uint256"
        },
        {
          "indexed": false,
          "internalType": "uint8",
          "name": "poolSize",
          "type": "uint8"
        },
        {
          "indexed": false,
          "internalType": "uint256",
          "name": "collateralRequired",
          "type": "uint256"
        }
      ],
      "name": "PoolCreated",
      "type": "event"
    },
    {
      "anonymous": false,
      "inputs": [
        {
          "indexed": true,
          "internalType": "uint256",
          "name": "poolId",
          "type": "uint256"
        },
        {
          "indexed": false,
          "internalType": "uint256",
          "name": "startDate",
          "type": "uint256"
        }
      ],
      "name": "PoolStarted",
      "type": "event"
    },
    {
      "anonymous": false,
      "inputs": [
        {
          "indexed": true,
          "internalType": "uint256",
          "name": "poolId",
          "type": "uint256"
        },
        {
          "indexed": false,
          "internalType": "uint8",
          "name": "month",
          "type": "uint8"
        },
        {
          "indexed": true,
          "internalType": "address",
          "name": "winner",
          "type": "address"
        },
        {
          "indexed": false,
          "internalType": "uint256",
          "name": "potAmount",
          "type": "uint256"
        },
        {
          "indexed": false,
          "internalType": "uint256",
          "name": "potYield",
          "type": "uint256"
        }
      ],
      "name": "WinnerDrawn",
      "type": "event"
    },
    {
      "anonymous": false,
      "inputs": [
        {
          "indexed": true,
          "internalType": "uint256",
          "name": "poolId",
          "type": "uint256"
        },
        {
          "indexed": false,
          "internalType": "uint256",
          "name": "collateralYield",
          "type": "uint256"
        },
        {
          "indexed": false,
          "internalType": "uint256",
          "name": "potYield",
          "type": "uint256"
        }
      ],
      "name": "YieldUpdated",
      "type": "event"
    },
    {
      "inputs": [],
      "name": "PENALTY_RATE",
      "outputs": [
        {
          "internalType": "uint256",
          "name": "",
          "type": "uint256"
        }
      ],
      "stateMutability": "view",
      "type": "function"
    },
    {
      "inputs": [],
      "name": "PLATFORM_FEE",
      "outputs": [
        {
          "internalType": "uint256",
          "name": "",
          "type": "uint256"
        }
      ],
      "stateMutability": "view",
      "type": "function"
    },
    {
      "inputs": [
        {
          "internalType": "uint256",
          "name": "poolId",
          "type": "uint256"
        },
        {
          "internalType": "uint8",
          "name": "month",
          "type": "uint8"
        }
      ],
      "name": "batchProcessPayments",
      "outputs": [],
      "stateMutability": "nonpayable",
      "type": "function"
    },
    {
      "inputs": [
        {
          "internalType": "uint256",
          "name": "poolId",
          "type": "uint256"
        },
        {
          "internalType": "address",
          "name": "participantAddr",
          "type": "address"
        }
      ],
      "name": "calculateProjectedPayout",
      "outputs": [
        {
          "internalType": "uint256",
          "name": "",
          "type": "uint256"
        }
      ],
      "stateMutability": "view",
      "type": "function"
    },
    {
      "inputs": [],
      "name": "callbackGasLimit",
      "outputs": [
        {
          "internalType": "uint32",
          "name": "",
          "type": "uint32"
        }
      ],
      "stateMutability": "view",
      "type": "function"
    },
    {
      "inputs": [
        {
          "internalType": "uint256",
          "name": "poolId",
          "type": "uint256"
        }
      ],
      "name": "claimFinalSettlement",
      "outputs": [],
      "stateMutability": "nonpayable",
      "type": "function"
    },
    {
      "inputs": [
        {
          "internalType": "uint256",
          "name": "monthlyAmount",
          "type": "uint256"
        },
        {
          "internalType": "uint8",
          "name": "poolSize",
          "type": "uint8"
        }
      ],
      "name": "createPool",
      "outputs": [
        {
          "internalType": "uint256",
          "name": "",
          "type": "uint256"
        }
      ],
      "stateMutability": "nonpayable",
      "type": "function"
    },
    {
      "inputs": [
        {
          "internalType": "uint256",
          "name": "poolId",
          "type": "uint256"
        },
        {
          "internalType": "address",
          "name": "participantAddr",
          "type": "address"
        }
      ],
      "name": "getParticipantDetails",
      "outputs": [
        {
          "internalType": "uint256",
          "name": "collateralDeposited",
          "type": "uint256"
        },
        {
          "internalType": "uint256",
          "name": "collateralYieldEarned",
          "type": "uint256"
        },
        {
          "internalType": "uint256",
          "name": "collateralUsedForPayments",
          "type": "uint256"
        },
        {
          "internalType": "uint8",
          "name": "missedPayments",
          "type": "uint8"
        },
        {
          "internalType": "uint256",
          "name": "totalPenalties",
          "type": "uint256"
        },
        {
          "internalType": "bool",
          "name": "hasWon",
          "type": "bool"
        },
        {
          "internalType": "uint256",
          "name": "potReceived",
          "type": "uint256"
        }
      ],
      "stateMutability": "view",
      "type": "function"
    },
    {
      "inputs": [
        {
          "internalType": "uint256",
          "name": "poolId",
          "type": "uint256"
        },
        {
          "internalType": "address",
          "name": "participantAddr",
          "type": "address"
        }
      ],
      "name": "getPaymentHistory",
      "outputs": [
        {
          "components": [
            {
              "internalType": "uint8",
              "name": "month",
              "type": "uint8"
            },
            {
              "internalType": "uint256",
              "name": "amount",
              "type": "uint256"
            },
            {
              "internalType": "enum ArminaPool.PaymentSource",
              "name": "source",
              "type": "uint8"
            },
            {
              "internalType": "uint256",
              "name": "penaltyApplied",
              "type": "uint256"
            },
            {
              "internalType": "uint256",
              "name": "timestamp",
              "type": "uint256"
            }
          ],
          "internalType": "struct ArminaPool.Payment[]",
          "name": "",
          "type": "tuple[]"
        }
      ],
      "stateMutability": "view",
      "type": "function"
    },
    {
      "inputs": [
        {
          "internalType": "uint256",
          "name": "poolId",
          "type": "uint256"
        }
      ],
      "name": "getPoolDetails",
      "outputs": [
        {
          "internalType": "uint256",
          "name": "id",
          "type": "uint256"
        },
        {
          "internalType": "uint256",
          "name": "monthlyAmount",
          "type": "uint256"
        },
        {
          "internalType": "uint8",
          "name": "poolSize",
          "type": "uint8"
        },
        {
          "internalType": "uint256",
          "name": "collateralRequired",
          "type": "uint256"
        },
        {
          "internalType": "uint8",
          "name": "currentParticipants",
          "type": "uint8"
        },
        {
          "internalType": "enum ArminaPool.PoolStatus",
          "name": "status",
          "type": "uint8"
        },
        {
          "internalType": "uint256",
          "name": "startDate",
          "type": "uint256"
        },
        {
          "internalType": "uint8",
          "name": "currentMonth",
          "type": "uint8"
        }
      ],
      "stateMutability": "view",
      "type": "function"
    },
    {
      "inputs": [],
      "name": "idrxToken",
      "outputs": [
        {
          "internalType": "contract IERC20",
          "name": "",
          "type": "address"
        }
      ],
      "stateMutability": "view",
      "type": "function"
    },
    {
      "inputs": [
        {
          "internalType": "uint256",
          "name": "poolId",
          "type": "uint256"
        }
      ],
      "name": "joinPool",
      "outputs": [],
      "stateMutability": "nonpayable",
      "type": "function"
    },
    {
      "inputs": [],
      "name": "keyHash",
      "outputs": [
        {
          "internalType": "bytes32",
          "name": "",
          "type": "bytes32"
        }
      ],
      "stateMutability": "view",
      "type": "function"
    },
    {
      "inputs": [],
      "name": "owner",
      "outputs": [
        {
          "internalType": "address",
          "name": "",
          "type": "address"
        }
      ],
      "stateMutability": "view",
      "type": "function"
    },
    {
      "inputs": [
        {
          "internalType": "uint256",
          "name": "",
          "type": "uint256"
        },
        {
          "internalType": "address",
          "name": "",
          "type": "address"
        }
      ],
      "name": "participants",
      "outputs": [
        {
          "internalType": "address",
          "name": "userAddress",
          "type": "address"
        },
        {
          "internalType": "uint256",
          "name": "collateralDeposited",
          "type": "uint256"
        },
        {
          "internalType": "uint256",
          "name": "collateralYieldEarned",
          "type": "uint256"
        },
        {
          "internalType": "uint256",
          "name": "collateralUsedForPayments",
          "type": "uint256"
        },
        {
          "internalType": "uint8",
          "name": "missedPayments",
          "type": "uint8"
        },
        {
          "internalType": "uint256",
          "name": "totalPenalties",
          "type": "uint256"
        },
        {
          "internalType": "bool",
          "name": "hasWon",
          "type": "bool"
        },
        {
          "internalType": "uint8",
          "name": "wonAtMonth",
          "type": "uint8"
        },
        {
          "internalType": "uint256",
          "name": "potReceived",
          "type": "uint256"
        },
        {
          "internalType": "uint256",
          "name": "potYieldReceived",
          "type": "uint256"
        },
        {
          "internalType": "bool",
          "name": "hasJoined",
          "type": "bool"
        },
        {
          "internalType": "uint256",
          "name": "joinedAt",
          "type": "uint256"
        }
      ],
      "stateMutability": "view",
      "type": "function"
    },
    {
      "inputs": [
        {
          "internalType": "uint256",
          "name": "",
          "type": "uint256"
        },
        {
          "internalType": "address",
          "name": "",
          "type": "address"
        },
        {
          "internalType": "uint256",
          "name": "",
          "type": "uint256"
        }
      ],
      "name": "paymentHistory",
      "outputs": [
        {
          "internalType": "uint8",
          "name": "month",
          "type": "uint8"
        },
        {
          "internalType": "uint256",
          "name": "amount",
          "type": "uint256"
        },
        {
          "internalType": "enum ArminaPool.PaymentSource",
          "name": "source",
          "type": "uint8"
        },
        {
          "internalType": "uint256",
          "name": "penaltyApplied",
          "type": "uint256"
        },
        {
          "internalType": "uint256",
          "name": "timestamp",
          "type": "uint256"
        }
      ],
      "stateMutability": "view",
      "type": "function"
    },
    {
      "inputs": [
        {
          "internalType": "uint256",
          "name": "",
          "type": "uint256"
        }
      ],
      "name": "poolCollateralYield",
      "outputs": [
        {
          "internalType": "uint256",
          "name": "",
          "type": "uint256"
        }
      ],
      "stateMutability": "view",
      "type": "function"
    },
    {
      "inputs": [],
      "name": "poolCounter",
      "outputs": [
        {
          "internalType": "uint256",
          "name": "",
          "type": "uint256"
        }
      ],
      "stateMutability": "view",
      "type": "function"
    },
    {
      "inputs": [
        {
          "internalType": "uint256",
          "name": "",
          "type": "uint256"
        },
        {
          "internalType": "uint256",
          "name": "",
          "type": "uint256"
        }
      ],
      "name": "poolParticipants",
      "outputs": [
        {
          "internalType": "address",
          "name": "",
          "type": "address"
        }
      ],
      "stateMutability": "view",
      "type": "function"
    },
    {
      "inputs": [
        {
          "internalType": "uint256",
          "name": "",
          "type": "uint256"
        }
      ],
      "name": "poolPotYield",
      "outputs": [
        {
          "internalType": "uint256",
          "name": "",
          "type": "uint256"
        }
      ],
      "stateMutability": "view",
      "type": "function"
    },
    {
      "inputs": [
        {
          "internalType": "uint256",
          "name": "",
          "type": "uint256"
        }
      ],
      "name": "pools",
      "outputs": [
        {
          "internalType": "uint256",
          "name": "id",
          "type": "uint256"
        },
        {
          "internalType": "uint256",
          "name": "monthlyAmount",
          "type": "uint256"
        },
        {
          "internalType": "uint8",
          "name": "poolSize",
          "type": "uint8"
        },
        {
          "internalType": "uint256",
          "name": "collateralRequired",
          "type": "uint256"
        },
        {
          "internalType": "uint8",
          "name": "currentParticipants",
          "type": "uint8"
        },
        {
          "internalType": "enum ArminaPool.PoolStatus",
          "name": "status",
          "type": "uint8"
        },
        {
          "internalType": "uint8",
          "name": "drawingDay",
          "type": "uint8"
        },
        {
          "internalType": "uint256",
          "name": "startDate",
          "type": "uint256"
        },
        {
          "internalType": "uint8",
          "name": "currentMonth",
          "type": "uint8"
        },
        {
          "internalType": "address",
          "name": "creator",
          "type": "address"
        }
      ],
      "stateMutability": "view",
      "type": "function"
    },
    {
      "inputs": [
        {
          "internalType": "uint256",
          "name": "poolId",
          "type": "uint256"
        },
        {
          "internalType": "uint8",
          "name": "month",
          "type": "uint8"
        }
      ],
      "name": "processMonthlyPayment",
      "outputs": [],
      "stateMutability": "nonpayable",
      "type": "function"
    },
    {
      "inputs": [
        {
          "internalType": "uint256",
          "name": "requestId",
          "type": "uint256"
        },
        {
          "internalType": "uint256[]",
          "name": "randomWords",
          "type": "uint256[]"
        }
      ],
      "name": "rawFulfillRandomWords",
      "outputs": [],
      "stateMutability": "nonpayable",
      "type": "function"
    },
    {
      "inputs": [],
      "name": "renounceOwnership",
      "outputs": [],
      "stateMutability": "nonpayable",
      "type": "function"
    },
    {
      "inputs": [],
      "name": "requestConfirmations",
      "outputs": [
        {
          "internalType": "uint16",
          "name": "",
          "type": "uint16"
        }
      ],
      "stateMutability": "view",
      "type": "function"
    },
    {
      "inputs": [
        {
          "internalType": "uint256",
          "name": "poolId",
          "type": "uint256"
        }
      ],
      "name": "requestWinnerDraw",
      "outputs": [
        {
          "internalType": "uint256",
          "name": "",
          "type": "uint256"
        }
      ],
      "stateMutability": "nonpayable",
      "type": "function"
    },
    {
      "inputs": [],
      "name": "subscriptionId",
      "outputs": [
        {
          "internalType": "uint64",
          "name": "",
          "type": "uint64"
        }
      ],
      "stateMutability": "view",
      "type": "function"
    },
    {
      "inputs": [
        {
          "internalType": "address",
          "name": "newOwner",
          "type": "address"
        }
      ],
      "name": "transferOwnership",
      "outputs": [],
      "stateMutability": "nonpayable",
      "type": "function"
    },
    {
      "inputs": [],
      "name": "vrfCoordinator",
      "outputs": [
        {
          "internalType": "contract VRFCoordinatorV2Interface",
          "name": "",
          "type": "address"
        }
      ],
      "stateMutability": "view",
      "type": "function"
    },
    {
      "inputs": [
        {
          "internalType": "uint256",
          "name": "",
          "type": "uint256"
        }
      ],
      "name": "vrfRequestToPoolId",
      "outputs": [
        {
          "internalType": "uint256",
          "name": "",
          "type": "uint256"
        }
      ],
      "stateMutability": "view",
      "type": "function"
    }
  ],
  "bytecode": "0x60e06040526003805465ffffffffffff19166403000186a01790553480156200002757600080fd5b50604051620025d6380380620025d68339810160408190526200004a9162000141565b60016000558233806200007757604051631e4fbdf760e01b81526000600482015260240160405180910390fd5b6200008281620000d2565b506001600160a01b0390811660805293841660a0529190921660c052600180546001600160401b03909316600160a01b02600160a01b600160e01b031990931692909217909155600255620001a1565b600180546001600160a01b038381166001600160a01b0319831681179093556040519116919082907f8be0079c531659141344cd1fd0a4f28419497f9722a3daafe3b4186f6b6457e090600090a35050565b80516001600160a01b03811681146200013c57600080fd5b919050565b600080600080608085870312156200015857600080fd5b620001638562000124565b9350620001736020860162000124565b60408601519093506001600160401b03811681146200019157600080fd5b6060959095015193969295505050565b60805160a05160c0516123cd62000209600039600081816104c801526115390152600081816106bc015281816107c0015281816109e101528181610d800152818161121301528181611b560152611bc801526000818161088901526108cb01526123cd6000f3fe608060405234801561001057600080fd5b50600436106101da5760003560e01c80638da5cb5b11610104578063b194ea42116100a2578063d5710d3f11610071578063d5710d3f146106a4578063d6bc7c63146106b7578063eea2190c146106de578063f2fde38b146106f157600080fd5b8063b194ea42146105dd578063b8764c39146105f0578063bb47203a14610660578063cb2b23261461068057600080fd5b8063a4e32260116100de578063a4e32260146104ea578063ac4afa381461050a578063b068216814610594578063b0fb162f146105b457600080fd5b80638da5cb5b146104a95780639e3079cb146104ba578063a3e56fa8146104c357600080fd5b806334e7a19f1161017c5780635e40953c1161014b5780635e40953c1461046557806361728f3914610478578063715018a6146104815780638c934cd91461048957600080fd5b806334e7a19f1461041457806334fbc9a11461030f5780633e8aa0a2146104275780635315cc641461043a57600080fd5b80631d9492c7116101b85780631d9492c7146103255780631fe543e31461033a57806324f746971461034d57806332bee4671461037257600080fd5b806302e060c6146101df57806309c1ba2e146102db5780630ad08b861461030f575b600080fd5b6102686101ed366004611edc565b6006602081815260009384526040808520909152918352912080546001820154600283015460038401546004850154600586015496860154600787015460088801546009890154600a909901546001600160a01b039098169996989597949660ff94851696909585851695610100909504851694909116908c565b604080516001600160a01b03909d168d5260208d019b909b52998b019890985260608a019690965260ff94851660808a015260a089019390935290151560c08801529190911660e08601526101008501526101208401521515610140830152610160820152610180015b60405180910390f35b6001546102f690600160a01b900467ffffffffffffffff1681565b60405167ffffffffffffffff90911681526020016102d2565b610317600a81565b6040519081526020016102d2565b610338610333366004611f08565b610704565b005b610338610348366004611f37565b61087e565b60035461035d9063ffffffff1681565b60405163ffffffff90911681526020016102d2565b6103db610380366004611edc565b60009182526006602081815260408085206001600160a01b039490941685529290529120600181015460028201546003830154600484015460058501549585015460079095015493969295919460ff91821694929391169190565b6040805197885260208801969096529486019390935260ff90911660608501526080840152151560a083015260c082015260e0016102d2565b610338610422366004611f08565b61090b565b610338610435366004612001565b610c5e565b61044d610448366004612037565b610f9e565b6040516001600160a01b0390911681526020016102d2565b610317610473366004611edc565b610fd6565b61031760025481565b610338610feb565b610317610497366004611f08565b600b6020526000908152604090205481565b6001546001600160a01b031661044d565b61031760045481565b61044d7f000000000000000000000000000000000000000000000000000000000000000081565b6104fd6104f8366004611edc565b610fff565b6040516102d29190612083565b61057e610518366004611f08565b600560208190526000918252604090912080546001820154600283015460038401546004850154958501546006909501549395929460ff92831694919383811693610100808304821694620100009093048216939291821691046001600160a01b03168a565b6040516102d29a9998979695949392919061210d565b6103176105a2366004611f08565b60096020526000908152604090205481565b6003546105ca90640100000000900461ffff1681565b60405161ffff90911681526020016102d2565b6103386105eb366004612001565b6110da565b61064c6105fe366004611f08565b600090815260056020819052604090912080546001820154600283015460038401546004850154958501546006909501549396929560ff928316959194838216946101009092048416931690565b6040516102d2989796959493929190612178565b61031761066e366004611f08565b600a6020526000908152604090205481565b61069361068e3660046121c8565b611426565b6040516102d29594939291906121fd565b6103176106b2366004611f08565b611487565b61044d7f000000000000000000000000000000000000000000000000000000000000000081565b6103176106ec366004612001565b6115c9565b6103386106ff36600461222e565b611718565b61070c611753565b6000818152600560209081526040808320600683528184203385529092529091206003600483810154610100900460ff169081111561074d5761074d612059565b1461076b57604051631d1bd8db60e11b815260040160405180910390fd5b600981015460ff166107905760405163721c7c6760e11b815260040160405180910390fd5b600061079c843361177d565b905080156108375760405163a9059cbb60e01b8152336004820152602481018290527f00000000000000000000000000000000000000000000000000000000000000006001600160a01b03169063a9059cbb906044016020604051808303816000875af1158015610811573d6000803e3d6000fd5b505050506040513d601f19601f820116820180604052508101906108359190612249565b505b604051818152339085907f323ca324bdef92d3d59b8fcb3de8c3552acc8c302a01e951e367193c580e5ed89060200160405180910390a350505061087b6001600055565b50565b336001600160a01b037f000000000000000000000000000000000000000000000000000000000000000016146108fd5760405163073e64fd60e21b81523360048201526001600160a01b037f00000000000000000000000000000000000000000000000000000000000000001660248201526044015b60405180910390fd5b6109078282611802565b5050565b610913611753565b600081815260056020526040812090600482810154610100900460ff169081111561094057610940612059565b1461095e5760405163050d584d60e21b815260040160405180910390fd5b600082815260066020908152604080832033845290915290206009015460ff161561099b57604051621d934160e11b815260040160405180910390fd5b6000816001015482600301546109b19190612288565b6040516323b872dd60e01b8152336004820152306024820152604481018290529091506000906001600160a01b037f000000000000000000000000000000000000000000000000000000000000000016906323b872dd906064016020604051808303816000875af1158015610a2a573d6000803e3d6000fd5b505050506040513d601f19601f82011682018060405250810190610a4e9190612249565b905080610a6e5760405163cd1c886760e01b815260040160405180910390fd5b60008481526006602090815260408083203380855290835281842080546001600160a01b0319169091178155600387015460018083019190915560098201805460ff19168217905542600a830155825160a081018452818152908801549381019390935292919081018281526000602080830182905242604093840152898252600781528282203383528152828220805460018181018355918452928290208551600590940201805460ff90941660ff19948516178155918501518282015592840151600282018054959650869592949193909216908381811115610b5557610b55612059565b0217905550606082015160038201556080909101516004918201556000878152600860209081526040822080546001810182559083529082200180546001600160a01b03191633179055908601805460ff1691610bb18361229b565b91906101000a81548160ff021916908360ff16021790555050336001600160a01b0316867f35094085dd53a9e8670648d077e5e5e6318ca8d566c076f61223e10676529f4287600301548860010154604051610c17929190918252602082015260400190565b60405180910390a36002850154600486015460ff918216911603610c4f5760048501805461ff001916610100179055610c4f86611d38565b505050505061087b6001600055565b610c66611da7565b60008281526005602090815260408083206008909252822090915b8154811015610f97576000828281548110610c9e57610c9e6122ba565b60009182526020808320909101548883526006825260408084206001600160a01b039092168085529183528084208a85526007845281852083865290935283209093509091805b8254811015610d38578860ff16838281548110610d0457610d046122ba565b600091825260209091206005909102015460ff1603610d265760019150610d38565b80610d30816122d0565b915050610ce5565b508015610d485750505050610f85565b60018701546040516323b872dd60e01b81526001600160a01b03868116600483015230602483015260448201839052600091829182917f0000000000000000000000000000000000000000000000000000000000000000909116906323b872dd906064016020604051808303816000875af1158015610dcb573d6000803e3d6000fd5b505050506040513d601f19601f82011682018060405250810190610def9190612249565b90508015610e005760009250610e80565b6001925083876003016000828254610e189190612288565b909155505060048701805460ff16906000610e328361229b565b91906101000a81548160ff021916908360ff160217905550506064600a85610e5a91906122e9565b610e649190612316565b915081876005016000828254610e7a9190612288565b90915550505b60006040518060a001604052808e60ff168152602001868152602001856001811115610eae57610eae612059565b8152602080820186905242604092830152895460018181018c5560008c81528390208551600590930201805460ff90931660ff19938416178155928501518382015592840151600283018054959650869593949193909216908381811115610f1857610f18612059565b021790555060608201518160030155608082015181600401555050886001600160a01b03168e7fe8683601cf4ec545c93329ef5ee5f0ede5345ed9c011b972aee8a8bca63617fc8f888888604051610f73949392919061232a565b60405180910390a35050505050505050505b80610f8f816122d0565b915050610c81565b5050505050565b60086020528160005260406000208181548110610fba57600080fd5b6000918252602090912001546001600160a01b03169150829050565b6000610fe2838361177d565b90505b92915050565b610ff3611da7565b610ffd6000611dd4565b565b60008281526007602090815260408083206001600160a01b03851684528252808320805482518185028101850190935280835260609492939192909184015b828210156110ce5760008481526020908190206040805160a08101825260058602909201805460ff90811684526001808301549585019590955260028201549394919392850192169081111561109657611096612059565b60018111156110a7576110a7612059565b8152602001600382015481526020016004820154815250508152602001906001019061103e565b50505050905092915050565b6110e2611753565b6000828152600560209081526040808320600683528184203385529092529091206002600483810154610100900460ff169081111561112357611123612059565b14611141576040516338c0a90160e11b815260040160405180910390fd5b600981015460ff166111665760405163721c7c6760e11b815260040160405180910390fd5b60008481526007602090815260408083203384529091528120905b81548110156111e4578460ff168282815481106111a0576111a06122ba565b600091825260209091206005909102015460ff16036111d25760405163424e8d7160e01b815260040160405180910390fd5b806111dc816122d0565b915050611181565b5060018301546040516323b872dd60e01b815233600482015230602482015260448101829052600090819081907f00000000000000000000000000000000000000000000000000000000000000006001600160a01b0316906323b872dd906064016020604051808303816000875af1158015611264573d6000803e3d6000fd5b505050506040513d601f19601f820116820180604052508101906112889190612249565b905080156112995760009250611319565b60019250838660030160008282546112b19190612288565b909155505060048601805460ff169060006112cb8361229b565b91906101000a81548160ff021916908360ff160217905550506064600a856112f391906122e9565b6112fd9190612316565b9150818660050160008282546113139190612288565b90915550505b60006040518060a001604052808a60ff16815260200186815260200185600181111561134757611347612059565b8152602080820186905242604092830152885460018181018b5560008b81528390208551600590930201805460ff90931660ff199384161781559285015183820155928401516002830180549596508695939491939092169083818111156113b1576113b1612059565b021790555060608201518160030155608082015181600401555050336001600160a01b03168a7fe8683601cf4ec545c93329ef5ee5f0ede5345ed9c011b972aee8a8bca63617fc8b88888860405161140c949392919061232a565b60405180910390a350505050505050506109076001600055565b6007602052826000526040600020602052816000526040600020818154811061144e57600080fd5b60009182526020909120600590910201805460018201546002830154600384015460049094015460ff9384169750919550909116925085565b6000611491611da7565b60008281526005602052604090206002600482810154610100900460ff16908111156114bf576114bf612059565b146114dd576040516338c0a90160e11b815260040160405180910390fd5b600254600180546003546040516305d3b1d360e41b81526004810194909452600160a01b90910467ffffffffffffffff166024840152640100000000810461ffff16604484015263ffffffff16606483015260848201526000907f00000000000000000000000000000000000000000000000000000000000000006001600160a01b031690635d3b1d309060a4016020604051808303816000875af115801561158a573d6000803e3d6000fd5b505050506040513d601f19601f820116820180604052508101906115ae9190612357565b6000818152600960205260409020859055925050505b919050565b60008160ff166005141580156115e357508160ff16600a14155b80156115f357508160ff16600f14155b801561160357508160ff16601414155b1561162157604051632267ea9360e21b815260040160405180910390fd5b82600003611642576040516330c94a4360e11b815260040160405180910390fd5b6000600460008154611653906122d0565b918290555060008181526005602052604090208181556001810186905560028101805460ff191660ff87169081179091559192509061169290866122e9565b6003820181905560048201805462ffffff1916620a00001790556006820180546001600160a81b03191661010033908102919091179091556040805188815260ff881660208201528082019390935251909184917f1989a159a75ef3d1d3cc647f9b3b5db0cc384c23331933d7eb9acfa9391b9f519181900360600190a3509392505050565b611720611da7565b6001600160a01b03811661174a57604051631e4fbdf760e01b8152600060048201526024016108f4565b61087b81611dd4565b60026000540361177657604051633ee5aeb560e01b815260040160405180910390fd5b6002600055565b60008281526006602090815260408083206001600160a01b03851684529091528120816117aa8585611e26565b905060008183600101546117be9190612288565b90506000836005015484600301546117d69190612288565b9050808211156117f5576117ea8183612370565b945050505050610fe5565b5060009695505050505050565b6000828152600960209081526040808320548084526005909252822060028101549192909160ff1667ffffffffffffffff81111561184257611842611f21565b60405190808252806020026020018201604052801561186b578160200160208202803683370190505b50600084815260086020526040812091925090815b815481101561194a578460080160008383815481106118a1576118a16122ba565b60009182526020808320909101546001600160a01b0316835282019290925260400190205460ff16611938578181815481106118df576118df6122ba565b9060005260206000200160009054906101000a90046001600160a01b0316848460ff1681518110611912576119126122ba565b6001600160a01b0390921660209283029190910190910152826119348161229b565b9350505b80611942816122d0565b915050611880565b5060008260ff1687600081518110611964576119646122ba565b60200260200101516119769190612383565b9050600084828151811061198c5761198c6122ba565b60200260200101519050808660070160008860060160009054906101000a900460ff1660ff16815260200190815260200160002060006101000a8154816001600160a01b0302191690836001600160a01b031602179055506001866008016000836001600160a01b03166001600160a01b0316815260200190815260200160002060006101000a81548160ff0219169083151502179055506000600660008981526020019081526020016000206000836001600160a01b03166001600160a01b03168152602001908152602001600020905060018160060160006101000a81548160ff0219169083151502179055508660060160009054906101000a900460ff168160060160016101000a81548160ff021916908360ff16021790555060008760020160009054906101000a900460ff1660ff168860010154611acf91906122e9565b6006890154909150600090611ae8908b9060ff16611e85565b600784018390556008840181905590506000611b048284612288565b905060006064611b15600a856122e9565b611b1f9190612316565b90506000611b2d8284612370565b60405163a9059cbb60e01b81526001600160a01b038981166004830152602482018390529192507f00000000000000000000000000000000000000000000000000000000000000009091169063a9059cbb906044016020604051808303816000875af1158015611ba1573d6000803e3d6000fd5b505050506040513d601f19601f82011682018060405250810190611bc59190612249565b507f00000000000000000000000000000000000000000000000000000000000000006001600160a01b031663a9059cbb611c076001546001600160a01b031690565b6040516001600160e01b031960e084901b1681526001600160a01b039091166004820152602481018590526044016020604051808303816000875af1158015611c54573d6000803e3d6000fd5b505050506040513d601f19601f82011682018060405250810190611c789190612249565b5060068c01546040805160ff90921682526020820187905281018590526001600160a01b038816908e907f422711909d3d92f14c950f77cb91c4ef7c89ca05513bccba8af41dff45bfaa439060600160405180910390a360068c01805460ff16906000611ce48361229b565b82546101009290920a60ff81810219909316918316021790915560028e015460068f0154908216911611159050611d275760048c01805461ff0019166103001790555b505050505050505050505050505050565b60008181526005602081815260409283902060048101805461ff0019166102001790554292810183905560068101805460ff19166001179055925191825283917faf9b8c1676656a817bb6b978900dea30f7d87dd4af846ff666096a49ebdd1e35910160405180910390a25050565b6001546001600160a01b03163314610ffd5760405163118cdaa760e01b81523360048201526024016108f4565b600180546001600160a01b038381166001600160a01b0319831681179093556040519116919082907f8be0079c531659141344cd1fd0a4f28419497f9722a3daafe3b4186f6b6457e090600090a35050565b60008281526006602090815260408083206001600160a01b038516845290915281206001810154600890600a9084906104b0908390611e669086906122e9565b611e7091906122e9565b611e7a9190612316565b979650505050505050565b6000828152600560205260408120600281015460018201548391611eae9160ff909116906122e9565b9050600860006104b060ff8716611e6684866122e9565b80356001600160a01b03811681146115c457600080fd5b60008060408385031215611eef57600080fd5b82359150611eff60208401611ec5565b90509250929050565b600060208284031215611f1a57600080fd5b5035919050565b634e487b7160e01b600052604160045260246000fd5b60008060408385031215611f4a57600080fd5b8235915060208084013567ffffffffffffffff80821115611f6a57600080fd5b818601915086601f830112611f7e57600080fd5b813581811115611f9057611f90611f21565b8060051b604051601f19603f83011681018181108582111715611fb557611fb5611f21565b604052918252848201925083810185019189831115611fd357600080fd5b938501935b82851015611ff157843584529385019392850192611fd8565b8096505050505050509250929050565b6000806040838503121561201457600080fd5b82359150602083013560ff8116811461202c57600080fd5b809150509250929050565b6000806040838503121561204a57600080fd5b50508035926020909101359150565b634e487b7160e01b600052602160045260246000fd5b6002811061207f5761207f612059565b9052565b602080825282518282018190526000919060409081850190868401855b828110156120f057815160ff81511685528681015187860152858101516120c98787018261206f565b50606081810151908601526080908101519085015260a090930192908501906001016120a0565b5091979650505050505050565b6005811061207f5761207f612059565b8a8152602081018a905260ff89811660408301526060820189905287166080820152610140810161214160a08301886120fd565b60ff861660c08301528460e083015260ff841661010083015260018060a01b0383166101208301529b9a5050505050505050505050565b8881526020810188905260ff8781166040830152606082018790528516608082015261010081016121ac60a08301866120fd565b8360c083015260ff831660e08301529998505050505050505050565b6000806000606084860312156121dd57600080fd5b833592506121ed60208501611ec5565b9150604084013590509250925092565b60ff861681526020810185905260a0810161221b604083018661206f565b6060820193909352608001529392505050565b60006020828403121561224057600080fd5b610fe282611ec5565b60006020828403121561225b57600080fd5b8151801515811461226b57600080fd5b9392505050565b634e487b7160e01b600052601160045260246000fd5b80820180821115610fe557610fe5612272565b600060ff821660ff81036122b1576122b1612272565b60010192915050565b634e487b7160e01b600052603260045260246000fd5b6000600182016122e2576122e2612272565b5060010190565b8082028115828204841417610fe557610fe5612272565b634e487b7160e01b600052601260045260246000fd5b60008261232557612325612300565b500490565b60ff851681526020810184905260808101612348604083018561206f565b82606083015295945050505050565b60006020828403121561236957600080fd5b5051919050565b81810381811115610fe557610fe5612272565b60008261239257612392612300565b50069056fea2646970667358221220f97b2ffc1660923c0b0487a81ad126c50c866e977067e24b3e72ca04f2f101cc64736f6c63430008140033",
  "linkReferences": {},
  "deployedLinkReferences": {}
}