{
  "_format": "hh-sol-artifact-1",
  "contractName": "IDRX",
  "sourceName": "contracts/IDRX.sol",
  "abi": [
    {
      "inputs": [
        {
          "internalType": "uint256",
          "name": "initialSupply",
          "type": "uint256"
        }
      ],
      "stateMutability": "nonpayable",
      "type": "constructor"
    },
    {
      "inputs": [
        {
          "internalType": "address",
          "name": "spender",
          "type": "address"
        },
        {
          "internalType": "uint256",
          "name": "allowance",
          "type": "uint256"
        },
        {
          "internalType": "uint256",
          "name": "needed",
          "type": "uint256"
        }
      ],
      "name": "ERC20InsufficientAllowance",
      "type": "error"
    },
    {
      "inputs": [
        {
          "internalType": "address",
          "name": "sender",
          "type": "address"
        },
        {
          "internalType": "uint256",
          "name": "balance",
          "type": "uint256"
        },
        {
          "internalType": "uint256",
          "name": "needed",
          "type": "uint256"
        }
      ],
      "name": "ERC20InsufficientBalance",
      "type": "error"
    },
    {
      "inputs": [
        {
          "internalType": "address",
          "name": "approver",
          "type": "address"
        }
      ],
      "name": "ERC20InvalidApprover",
      "type": "error"
    },
    {
      "inputs": [
        {
          "internalType": "address",
          "name": "receiver",
          "type": "address"
        }
      ],
      "name": "ERC20InvalidReceiver",
      "type": "error"
    },
    {
      "inputs": [
        {
          "internalType": "address",
          "name": "sender",
          "type": "address"
        }
      ],
      "name": "ERC20InvalidSender",
      "type": "error"
    },
    {
      "inputs": [
        {
          "internalType": "address",
          "name": "spender",
          "type": "address"
        }
      ],
      "name": "ERC20InvalidSpender",
      "type": "error"
    },
    {
      "inputs": [
        {
          "internalType": "address",
          "name": "owner",
          "type": "address"
        }
      ],
      "name": "OwnableInvalidOwner",
      "type": "error"
    },
    {
      "inputs": [
        {
          "internalType": "address",
          "name": "account",
          "type": "address"
        }
      ],
      "name": "OwnableUnauthorizedAccount",
      "type": "error"
    },
    {
      "anonymous": false,
      "inputs": [
        {
          "indexed": true,
          "internalType": "address",
          "name": "owner",
          "type": "address"
        },
        {
          "indexed": true,
          "internalType": "address",
          "name": "spender",
          "type": "address"
        },
        {
          "indexed": false,
          "internalType": "uint256",
          "name": "value",
          "type": "uint256"
        }
      ],
      "name": "Approval",
      "type": "event"
    },
    {
      "anonymous": false,
      "inputs": [
        {
          "indexed": true,
          "internalType": "address",
          "name": "previousOwner",
          "type": "address"
        },
        {
          "indexed": true,
          "internalType": "address",
          "name": "newOwner",
          "type": "address"
        }
      ],
      "name": "OwnershipTransferred",
      "type": "event"
    },
    {
      "anonymous": false,
      "inputs": [
        {
          "indexed": true,
          "internalType": "address",
          "name": "from",
          "type": "address"
        },
        {
          "indexed": true,
          "internalType": "address",
          "name": "to",
          "type": "address"
        },
        {
          "indexed": false,
          "internalType": "uint256",
          "name": "value",
          "type": "uint256"
        }
      ],
      "name": "Transfer",
      "type": "event"
    },
    {
      "inputs": [
        {
          "internalType": "address",
          "name": "owner",
          "type": "address"
        },
        {
          "internalType": "address",
          "name": "spender",
          "type": "address"
        }
      ],
      "name": "allowance",
      "outputs": [
        {
          "internalType": "uint256",
          "name": "",
          "type": "uint256"
        }
      ],
      "stateMutability": "view",
      "type": "function"
    },
    {
      "inputs": [
        {
          "internalType": "address",
          "name": "spender",
          "type": "address"
        },
        {
          "internalType": "uint256",
          "name": "value",
          "type": "uint256"
        }
      ],
      "name": "approve",
      "outputs": [
        {
          "internalType": "bool",
          "name": "",
          "type": "bool"
        }
      ],
      "stateMutability": "nonpayable",
      "type": "function"
    },
    {
      "inputs": [
        {
          "internalType": "address",
          "name": "account",
          "type": "address"
        }
      ],
      "name": "balanceOf",
      "outputs": [
        {
          "internalType": "uint256",
          "name": "",
          "type": "uint256"
        }
      ],
      "stateMutability": "view",
      "type": "function"
    },
    {
      "inputs": [],
      "name": "decimals",
      "outputs": [
        {
          "internalType": "uint8",
          "name": "",
          "type": "uint8"
        }
      ],
      "stateMutability": "pure",
      "type": "function"
    },
    {
      "inputs": [],
      "name": "faucet",
      "outputs": [],
      "stateMutability": "nonpayable",
      "type": "function"
    },
    {
      "inputs": [
        {
          "internalType": "address",
          "name": "to",
          "type": "address"
        },
        {
          "internalType": "uint256",
          "name": "amount",
          "type": "uint256"
        }
      ],
      "name": "mint",
      "outputs": [],
      "stateMutability": "nonpayable",
      "type": "function"
    },
    {
      "inputs": [],
      "name": "name",
      "outputs": [
        {
          "internalType": "string",
          "name": "",
          "type": "string"
        }
      ],
      "stateMutability": "view",
      "type": "function"
    },
    {
      "inputs": [],
      "name": "owner",
      "outputs": [
        {
          "internalType": "address",
          "name": "",
          "type": "address"
        }
      ],
      "stateMutability": "view",
      "type": "function"
    },
    {
      "inputs": [],
      "name": "renounceOwnership",
      "outputs": [],
      "stateMutability": "nonpayable",
      "type": "function"
    },
    {
      "inputs": [],
      "name": "symbol",
      "outputs": [
        {
          "internalType": "string",
          "name": "",
          "type": "string"
        }
      ],
      "stateMutability": "view",
      "type": "function"
    },
    {
      "inputs": [],
      "name": "totalSupply",
      "outputs": [
        {
          "internalType": "uint256",
          "name": "",
          "type": "uint256"
        }
      ],
      "stateMutability": "view",
      "type": "function"
    },
    {
      "inputs": [
        {
          "internalType": "address",
          "name": "to",
          "type": "address"
        },
        {
          "internalType": "uint256",
          "name": "value",
          "type": "uint256"
        }
      ],
      "name": "transfer",
      "outputs": [
        {
          "internalType": "bool",
          "name": "",
          "type": "bool"
        }
      ],
      "stateMutability": "nonpayable",
      "type": "function"
    },
    {
      "inputs": [
        {
          "internalType": "address",
          "name": "from",
          "type": "address"
        },
        {
          "internalType": "address",
          "name": "to",
          "type": "address"
        },
        {
          "internalType": "uint256",
          "name": "value",
          "type": "uint256"
        }
      ],
      "name": "transferFrom",
      "outputs": [
        {
          "internalType": "bool",
          "name": "",
          "type": "bool"
        }
      ],
      "stateMutability": "nonpayable",
      "type": "function"
    },
    {
      "inputs": [
        {
          "internalType": "address",
          "name": "newOwner",
          "type": "address"
        }
      ],
      "name": "transferOwnership",
      "outputs": [],
      "stateMutability": "nonpayable",
      "type": "function"
    }
  ],
  "bytecode": "0x60806040523480156200001157600080fd5b5060405162000ea038038062000ea08339810160408190526200003491620002bd565b336040518060400160405280601381526020017f496e646f6e657369616e205275706961682058000000000000000000000000008152506040518060400160405280600481526020016309288a4b60e31b81525081600390816200009991906200037c565b506004620000a882826200037c565b5050506001600160a01b038116620000db57604051631e4fbdf760e01b8152600060048201526024015b60405180910390fd5b620000e681620000fa565b50620000f333826200014c565b5062000470565b600580546001600160a01b038381166001600160a01b0319831681179093556040519116919082907f8be0079c531659141344cd1fd0a4f28419497f9722a3daafe3b4186f6b6457e090600090a35050565b6001600160a01b038216620001785760405163ec442f0560e01b815260006004820152602401620000d2565b62000186600083836200018a565b5050565b6001600160a01b038316620001b9578060026000828254620001ad919062000448565b909155506200022d9050565b6001600160a01b038316600090815260208190526040902054818110156200020e5760405163391434e360e21b81526001600160a01b03851660048201526024810182905260448101839052606401620000d2565b6001600160a01b03841660009081526020819052604090209082900390555b6001600160a01b0382166200024b576002805482900390556200026a565b6001600160a01b03821660009081526020819052604090208054820190555b816001600160a01b0316836001600160a01b03167fddf252ad1be2c89b69c2b068fc378daa952ba7f163c4a11628f55a4df523b3ef83604051620002b091815260200190565b60405180910390a3505050565b600060208284031215620002d057600080fd5b5051919050565b634e487b7160e01b600052604160045260246000fd5b600181811c908216806200030257607f821691505b6020821081036200032357634e487b7160e01b600052602260045260246000fd5b50919050565b601f8211156200037757600081815260208120601f850160051c81016020861015620003525750805b601f850160051c820191505b8181101562000373578281556001016200035e565b5050505b505050565b81516001600160401b03811115620003985762000398620002d7565b620003b081620003a98454620002ed565b8462000329565b602080601f831160018114620003e85760008415620003cf5750858301515b600019600386901b1c1916600185901b17855562000373565b600085815260208120601f198616915b828110156200041957888601518255948401946001909101908401620003f8565b5085821015620004385787850151600019600388901b60f8161c191681555b5050505050600190811b01905550565b808201808211156200046a57634e487b7160e01b600052601160045260246000fd5b92915050565b610a2080620004806000396000f3fe608060405234801561001057600080fd5b50600436106100ea5760003560e01c8063715018a61161008c578063a9059cbb11610066578063a9059cbb146101cd578063dd62ed3e146101e0578063de5f72fd14610219578063f2fde38b1461022157600080fd5b8063715018a6146101a25780638da5cb5b146101aa57806395d89b41146101c557600080fd5b806323b872dd116100c857806323b872dd14610142578063313ce5671461015557806340c10f191461016457806370a082311461017957600080fd5b806306fdde03146100ef578063095ea7b31461010d57806318160ddd14610130575b600080fd5b6100f7610234565b6040516101049190610758565b60405180910390f35b61012061011b3660046107c2565b6102c6565b6040519015158152602001610104565b6002545b604051908152602001610104565b6101206101503660046107ec565b6102e0565b60405160128152602001610104565b6101776101723660046107c2565b610304565b005b610134610187366004610828565b6001600160a01b031660009081526020819052604090205490565b61017761031a565b6005546040516001600160a01b039091168152602001610104565b6100f761032e565b6101206101db3660046107c2565b61033d565b6101346101ee36600461084a565b6001600160a01b03918216600090815260016020908152604080832093909416825291909152205490565b61017761034b565b61017761022f366004610828565b610374565b6060600380546102439061087d565b80601f016020809104026020016040519081016040528092919081815260200182805461026f9061087d565b80156102bc5780601f10610291576101008083540402835291602001916102bc565b820191906000526020600020905b81548152906001019060200180831161029f57829003601f168201915b5050505050905090565b6000336102d48185856103b4565b60019150505b92915050565b6000336102ee8582856103c6565b6102f9858585610445565b506001949350505050565b61030c6104a4565b61031682826104d1565b5050565b6103226104a4565b61032c6000610507565b565b6060600480546102439061087d565b6000336102d4818585610445565b60006103596012600a6109b1565b610365906127106109c0565b905061037133826104d1565b50565b61037c6104a4565b6001600160a01b0381166103ab57604051631e4fbdf760e01b8152600060048201526024015b60405180910390fd5b61037181610507565b6103c18383836001610559565b505050565b6001600160a01b0383811660009081526001602090815260408083209386168352929052205460001981101561043f578181101561043057604051637dc7a0d960e11b81526001600160a01b038416600482015260248101829052604481018390526064016103a2565b61043f84848484036000610559565b50505050565b6001600160a01b03831661046f57604051634b637e8f60e11b8152600060048201526024016103a2565b6001600160a01b0382166104995760405163ec442f0560e01b8152600060048201526024016103a2565b6103c183838361062e565b6005546001600160a01b0316331461032c5760405163118cdaa760e01b81523360048201526024016103a2565b6001600160a01b0382166104fb5760405163ec442f0560e01b8152600060048201526024016103a2565b6103166000838361062e565b600580546001600160a01b038381166001600160a01b0319831681179093556040519116919082907f8be0079c531659141344cd1fd0a4f28419497f9722a3daafe3b4186f6b6457e090600090a35050565b6001600160a01b0384166105835760405163e602df0560e01b8152600060048201526024016103a2565b6001600160a01b0383166105ad57604051634a1406b160e11b8152600060048201526024016103a2565b6001600160a01b038085166000908152600160209081526040808320938716835292905220829055801561043f57826001600160a01b0316846001600160a01b03167f8c5be1e5ebec7d5bd14f71427d1e84f3dd0314c0f7b2291e5b200ac8c7c3b9258460405161062091815260200190565b60405180910390a350505050565b6001600160a01b03831661065957806002600082825461064e91906109d7565b909155506106cb9050565b6001600160a01b038316600090815260208190526040902054818110156106ac5760405163391434e360e21b81526001600160a01b038516600482015260248101829052604481018390526064016103a2565b6001600160a01b03841660009081526020819052604090209082900390555b6001600160a01b0382166106e757600280548290039055610706565b6001600160a01b03821660009081526020819052604090208054820190555b816001600160a01b0316836001600160a01b03167fddf252ad1be2c89b69c2b068fc378daa952ba7f163c4a11628f55a4df523b3ef8360405161074b91815260200190565b60405180910390a3505050565b600060208083528351808285015260005b8181101561078557858101830151858201604001528201610769565b506000604082860101526040601f19601f8301168501019250505092915050565b80356001600160a01b03811681146107bd57600080fd5b919050565b600080604083850312156107d557600080fd5b6107de836107a6565b946020939093013593505050565b60008060006060848603121561080157600080fd5b61080a846107a6565b9250610818602085016107a6565b9150604084013590509250925092565b60006020828403121561083a57600080fd5b610843826107a6565b9392505050565b6000806040838503121561085d57600080fd5b610866836107a6565b9150610874602084016107a6565b90509250929050565b600181811c9082168061089157607f821691505b6020821081036108b157634e487b7160e01b600052602260045260246000fd5b50919050565b634e487b7160e01b600052601160045260246000fd5b600181815b808511156109085781600019048211156108ee576108ee6108b7565b808516156108fb57918102915b93841c93908002906108d2565b509250929050565b60008261091f575060016102da565b8161092c575060006102da565b8160018114610942576002811461094c57610968565b60019150506102da565b60ff84111561095d5761095d6108b7565b50506001821b6102da565b5060208310610133831016604e8410600b841016171561098b575081810a6102da565b61099583836108cd565b80600019048211156109a9576109a96108b7565b029392505050565b600061084360ff841683610910565b80820281158282048414176102da576102da6108b7565b808201808211156102da576102da6108b756fea2646970667358221220ee1dc5952d70509acfdd5f521bc5758ef31ed8cc1b535b1676e7eb3d6dac184664736f6c63430008140033",
  "linkReferences": {},
  "deployedLinkReferences": {}
}